{
  "_format": "hh-sol-artifact-1",
  "contractName": "NFTMarketplace",
  "sourceName": "contracts/NFTMarket.sol",
  "abi": [
    {
      "inputs": [],
      "stateMutability": "nonpayable",
      "type": "constructor"
    },
    {
      "anonymous": false,
      "inputs": [
        {
          "indexed": true,
          "internalType": "address",
          "name": "owner",
          "type": "address"
        },
        {
          "indexed": true,
          "internalType": "address",
          "name": "approved",
          "type": "address"
        },
        {
          "indexed": true,
          "internalType": "uint256",
          "name": "tokenId",
          "type": "uint256"
        }
      ],
      "name": "Approval",
      "type": "event"
    },
    {
      "anonymous": false,
      "inputs": [
        {
          "indexed": true,
          "internalType": "address",
          "name": "owner",
          "type": "address"
        },
        {
          "indexed": true,
          "internalType": "address",
          "name": "operator",
          "type": "address"
        },
        {
          "indexed": false,
          "internalType": "bool",
          "name": "approved",
          "type": "bool"
        }
      ],
      "name": "ApprovalForAll",
      "type": "event"
    },
    {
      "anonymous": false,
      "inputs": [
        {
          "indexed": true,
          "internalType": "uint256",
          "name": "tokenId",
          "type": "uint256"
        },
        {
          "indexed": false,
          "internalType": "address",
          "name": "seller",
          "type": "address"
        },
        {
          "indexed": false,
          "internalType": "address",
          "name": "owner",
          "type": "address"
        },
        {
          "indexed": false,
          "internalType": "uint256",
          "name": "price",
          "type": "uint256"
        },
        {
          "indexed": false,
          "internalType": "bool",
          "name": "sold",
          "type": "bool"
        }
      ],
      "name": "MarketItemCreated",
      "type": "event"
    },
    {
      "anonymous": false,
      "inputs": [
        {
          "indexed": true,
          "internalType": "address",
          "name": "from",
          "type": "address"
        },
        {
          "indexed": true,
          "internalType": "address",
          "name": "to",
          "type": "address"
        },
        {
          "indexed": true,
          "internalType": "uint256",
          "name": "tokenId",
          "type": "uint256"
        }
      ],
      "name": "Transfer",
      "type": "event"
    },
    {
      "inputs": [
        {
          "internalType": "address",
          "name": "to",
          "type": "address"
        },
        {
          "internalType": "uint256",
          "name": "tokenId",
          "type": "uint256"
        }
      ],
      "name": "approve",
      "outputs": [],
      "stateMutability": "nonpayable",
      "type": "function"
    },
    {
      "inputs": [
        {
          "internalType": "address",
          "name": "owner",
          "type": "address"
        }
      ],
      "name": "balanceOf",
      "outputs": [
        {
          "internalType": "uint256",
          "name": "",
          "type": "uint256"
        }
      ],
      "stateMutability": "view",
      "type": "function"
    },
    {
      "inputs": [
        {
          "internalType": "uint256",
          "name": "tokenId",
          "type": "uint256"
        }
      ],
      "name": "cancelItemListing",
      "outputs": [],
      "stateMutability": "nonpayable",
      "type": "function"
    },
    {
      "inputs": [
        {
          "internalType": "uint256",
          "name": "tokenId",
          "type": "uint256"
        }
      ],
      "name": "createMarketSale",
      "outputs": [],
      "stateMutability": "payable",
      "type": "function"
    },
    {
      "inputs": [
        {
          "internalType": "string",
          "name": "tokenURI",
          "type": "string"
        },
        {
          "internalType": "uint256",
          "name": "price",
          "type": "uint256"
        }
      ],
      "name": "createToken",
      "outputs": [
        {
          "internalType": "uint256",
          "name": "",
          "type": "uint256"
        }
      ],
      "stateMutability": "payable",
      "type": "function"
    },
    {
      "inputs": [],
      "name": "fetchItemsListed",
      "outputs": [
        {
          "components": [
            {
              "internalType": "uint256",
              "name": "tokenId",
              "type": "uint256"
            },
            {
              "internalType": "address payable",
              "name": "seller",
              "type": "address"
            },
            {
              "internalType": "address payable",
              "name": "owner",
              "type": "address"
            },
            {
              "internalType": "uint256",
              "name": "price",
              "type": "uint256"
            },
            {
              "internalType": "bool",
              "name": "sold",
              "type": "bool"
            }
          ],
          "internalType": "struct NFTMarketplace.MarketItem[]",
          "name": "",
          "type": "tuple[]"
        }
      ],
      "stateMutability": "view",
      "type": "function"
    },
    {
      "inputs": [],
      "name": "fetchMarketItems",
      "outputs": [
        {
          "components": [
            {
              "internalType": "uint256",
              "name": "tokenId",
              "type": "uint256"
            },
            {
              "internalType": "address payable",
              "name": "seller",
              "type": "address"
            },
            {
              "internalType": "address payable",
              "name": "owner",
              "type": "address"
            },
            {
              "internalType": "uint256",
              "name": "price",
              "type": "uint256"
            },
            {
              "internalType": "bool",
              "name": "sold",
              "type": "bool"
            }
          ],
          "internalType": "struct NFTMarketplace.MarketItem[]",
          "name": "",
          "type": "tuple[]"
        }
      ],
      "stateMutability": "view",
      "type": "function"
    },
    {
      "inputs": [],
      "name": "fetchMyNFTs",
      "outputs": [
        {
          "components": [
            {
              "internalType": "uint256",
              "name": "tokenId",
              "type": "uint256"
            },
            {
              "internalType": "address payable",
              "name": "seller",
              "type": "address"
            },
            {
              "internalType": "address payable",
              "name": "owner",
              "type": "address"
            },
            {
              "internalType": "uint256",
              "name": "price",
              "type": "uint256"
            },
            {
              "internalType": "bool",
              "name": "sold",
              "type": "bool"
            }
          ],
          "internalType": "struct NFTMarketplace.MarketItem[]",
          "name": "",
          "type": "tuple[]"
        }
      ],
      "stateMutability": "view",
      "type": "function"
    },
    {
      "inputs": [
        {
          "internalType": "uint256",
          "name": "tokenId",
          "type": "uint256"
        }
      ],
      "name": "getApproved",
      "outputs": [
        {
          "internalType": "address",
          "name": "",
          "type": "address"
        }
      ],
      "stateMutability": "view",
      "type": "function"
    },
    {
      "inputs": [],
      "name": "getListingPrice",
      "outputs": [
        {
          "internalType": "uint256",
          "name": "",
          "type": "uint256"
        }
      ],
      "stateMutability": "view",
      "type": "function"
    },
    {
      "inputs": [
        {
          "internalType": "address",
          "name": "owner",
          "type": "address"
        },
        {
          "internalType": "address",
          "name": "operator",
          "type": "address"
        }
      ],
      "name": "isApprovedForAll",
      "outputs": [
        {
          "internalType": "bool",
          "name": "",
          "type": "bool"
        }
      ],
      "stateMutability": "view",
      "type": "function"
    },
    {
      "inputs": [],
      "name": "name",
      "outputs": [
        {
          "internalType": "string",
          "name": "",
          "type": "string"
        }
      ],
      "stateMutability": "view",
      "type": "function"
    },
    {
      "inputs": [
        {
          "internalType": "uint256",
          "name": "tokenId",
          "type": "uint256"
        }
      ],
      "name": "ownerOf",
      "outputs": [
        {
          "internalType": "address",
          "name": "",
          "type": "address"
        }
      ],
      "stateMutability": "view",
      "type": "function"
    },
    {
      "inputs": [
        {
          "internalType": "uint256",
          "name": "tokenId",
          "type": "uint256"
        },
        {
          "internalType": "uint256",
          "name": "price",
          "type": "uint256"
        }
      ],
      "name": "resellToken",
      "outputs": [],
      "stateMutability": "payable",
      "type": "function"
    },
    {
      "inputs": [
        {
          "internalType": "address",
          "name": "from",
          "type": "address"
        },
        {
          "internalType": "address",
          "name": "to",
          "type": "address"
        },
        {
          "internalType": "uint256",
          "name": "tokenId",
          "type": "uint256"
        }
      ],
      "name": "safeTransferFrom",
      "outputs": [],
      "stateMutability": "nonpayable",
      "type": "function"
    },
    {
      "inputs": [
        {
          "internalType": "address",
          "name": "from",
          "type": "address"
        },
        {
          "internalType": "address",
          "name": "to",
          "type": "address"
        },
        {
          "internalType": "uint256",
          "name": "tokenId",
          "type": "uint256"
        },
        {
          "internalType": "bytes",
          "name": "data",
          "type": "bytes"
        }
      ],
      "name": "safeTransferFrom",
      "outputs": [],
      "stateMutability": "nonpayable",
      "type": "function"
    },
    {
      "inputs": [
        {
          "internalType": "address",
          "name": "operator",
          "type": "address"
        },
        {
          "internalType": "bool",
          "name": "approved",
          "type": "bool"
        }
      ],
      "name": "setApprovalForAll",
      "outputs": [],
      "stateMutability": "nonpayable",
      "type": "function"
    },
    {
      "inputs": [
        {
          "internalType": "bytes4",
          "name": "interfaceId",
          "type": "bytes4"
        }
      ],
      "name": "supportsInterface",
      "outputs": [
        {
          "internalType": "bool",
          "name": "",
          "type": "bool"
        }
      ],
      "stateMutability": "view",
      "type": "function"
    },
    {
      "inputs": [],
      "name": "symbol",
      "outputs": [
        {
          "internalType": "string",
          "name": "",
          "type": "string"
        }
      ],
      "stateMutability": "view",
      "type": "function"
    },
    {
      "inputs": [
        {
          "internalType": "uint256",
          "name": "tokenId",
          "type": "uint256"
        }
      ],
      "name": "tokenURI",
      "outputs": [
        {
          "internalType": "string",
          "name": "",
          "type": "string"
        }
      ],
      "stateMutability": "view",
      "type": "function"
    },
    {
      "inputs": [
        {
          "internalType": "address",
          "name": "from",
          "type": "address"
        },
        {
          "internalType": "address",
          "name": "to",
          "type": "address"
        },
        {
          "internalType": "uint256",
          "name": "tokenId",
          "type": "uint256"
        }
      ],
      "name": "transferFrom",
      "outputs": [],
      "stateMutability": "nonpayable",
      "type": "function"
    },
    {
      "inputs": [
        {
          "internalType": "uint256",
          "name": "_listingPrice",
          "type": "uint256"
        }
      ],
      "name": "updateListingPrice",
      "outputs": [],
      "stateMutability": "payable",
      "type": "function"
    }
  ],
  "bytecode": "0x608060405266038d7ea4c680006009553480156200001c57600080fd5b506040518060400160405280601081526020017f4d657461766572736520546f6b656e73000000000000000000000000000000008152506040518060400160405280600481526020017f4d455441000000000000000000000000000000000000000000000000000000008152508160009080519060200190620000a192919062000104565b508060019080519060200190620000ba92919062000104565b50505033600a60006101000a81548173ffffffffffffffffffffffffffffffffffffffff021916908373ffffffffffffffffffffffffffffffffffffffff16021790555062000219565b8280546200011290620001e3565b90600052602060002090601f01602090048101928262000136576000855562000182565b82601f106200015157805160ff191683800117855562000182565b8280016001018555821562000182579182015b828111156200018157825182559160200191906001019062000164565b5b50905062000191919062000195565b5090565b5b80821115620001b057600081600090555060010162000196565b5090565b7f4e487b7100000000000000000000000000000000000000000000000000000000600052602260045260246000fd5b60006002820490506001821680620001fc57607f821691505b60208210811415620002135762000212620001b4565b5b50919050565b61447b80620002296000396000f3fe6080604052600436106101355760003560e01c80636352211e116100ab578063ae677aa31161006f578063ae677aa31461042d578063b88d4fde14610449578063be9af53614610472578063c87b56dd1461048e578063e219fc75146104cb578063e985e9c5146104e757610135565b80636352211e1461032f57806370a082311461036c57806372b3b620146103a957806395d89b41146103d9578063a22cb4651461040457610135565b806312e85585116100fd57806312e8558514610233578063202e37401461025e57806323b872dd14610289578063260070d8146102b257806342842e0e146102db57806345f8fa801461030457610135565b806301ffc9a71461013a57806306fdde0314610177578063081812fc146101a2578063095ea7b3146101df5780630f08efe014610208575b600080fd5b34801561014657600080fd5b50610161600480360381019061015c9190612e6c565b610524565b60405161016e9190612eb4565b60405180910390f35b34801561018357600080fd5b5061018c610606565b6040516101999190612f68565b60405180910390f35b3480156101ae57600080fd5b506101c960048036038101906101c49190612fc0565b610698565b6040516101d6919061302e565b60405180910390f35b3480156101eb57600080fd5b5061020660048036038101906102019190613075565b6106de565b005b34801561021457600080fd5b5061021d6107f6565b60405161022a919061320b565b60405180910390f35b34801561023f57600080fd5b50610248610a5f565b604051610255919061323c565b60405180910390f35b34801561026a57600080fd5b50610273610a69565b604051610280919061320b565b60405180910390f35b34801561029557600080fd5b506102b060048036038101906102ab9190613257565b610d57565b005b3480156102be57600080fd5b506102d960048036038101906102d49190612fc0565b610db7565b005b3480156102e757600080fd5b5061030260048036038101906102fd9190613257565b611022565b005b34801561031057600080fd5b50610319611042565b604051610326919061320b565b60405180910390f35b34801561033b57600080fd5b5061035660048036038101906103519190612fc0565b611330565b604051610363919061302e565b60405180910390f35b34801561037857600080fd5b50610393600480360381019061038e91906132aa565b6113b7565b6040516103a0919061323c565b60405180910390f35b6103c360048036038101906103be919061340c565b61146f565b6040516103d0919061323c565b60405180910390f35b3480156103e557600080fd5b506103ee6114b1565b6040516103fb9190612f68565b60405180910390f35b34801561041057600080fd5b5061042b60048036038101906104269190613494565b611543565b005b61044760048036038101906104429190612fc0565b611559565b005b34801561045557600080fd5b50610470600480360381019061046b9190613575565b6115f3565b005b61048c60048036038101906104879190612fc0565b611655565b005b34801561049a57600080fd5b506104b560048036038101906104b09190612fc0565b611893565b6040516104c29190612f68565b60405180910390f35b6104e560048036038101906104e091906135f8565b6119a6565b005b3480156104f357600080fd5b5061050e60048036038101906105099190613638565b611b9b565b60405161051b9190612eb4565b60405180910390f35b60007f80ac58cd000000000000000000000000000000000000000000000000000000007bffffffffffffffffffffffffffffffffffffffffffffffffffffffff1916827bffffffffffffffffffffffffffffffffffffffffffffffffffffffff191614806105ef57507f5b5e139f000000000000000000000000000000000000000000000000000000007bffffffffffffffffffffffffffffffffffffffffffffffffffffffff1916827bffffffffffffffffffffffffffffffffffffffffffffffffffffffff1916145b806105ff57506105fe82611c2f565b5b9050919050565b606060008054610615906136a7565b80601f0160208091040260200160405190810160405280929190818152602001828054610641906136a7565b801561068e5780601f106106635761010080835404028352916020019161068e565b820191906000526020600020905b81548152906001019060200180831161067157829003601f168201915b5050505050905090565b60006106a382611c99565b6004600083815260200190815260200160002060009054906101000a900473ffffffffffffffffffffffffffffffffffffffff169050919050565b60006106e982611330565b90508073ffffffffffffffffffffffffffffffffffffffff168373ffffffffffffffffffffffffffffffffffffffff16141561075a576040517f08c379a00000000000000000000000000000000000000000000000000000000081526004016107519061374b565b60405180910390fd5b8073ffffffffffffffffffffffffffffffffffffffff16610779611ce4565b73ffffffffffffffffffffffffffffffffffffffff1614806107a857506107a7816107a2611ce4565b611b9b565b5b6107e7576040517f08c379a00000000000000000000000000000000000000000000000000000000081526004016107de906137dd565b60405180910390fd5b6107f18383611cec565b505050565b606060006108046007611da5565b905060006108126008611da5565b61081c6007611da5565b610826919061382c565b90506000808267ffffffffffffffff811115610845576108446132e1565b5b60405190808252806020026020018201604052801561087e57816020015b61086b612d00565b8152602001906001900390816108635790505b50905060005b84811015610a54573073ffffffffffffffffffffffffffffffffffffffff16600b60006001846108b49190613860565b815260200190815260200160002060020160009054906101000a900473ffffffffffffffffffffffffffffffffffffffff1673ffffffffffffffffffffffffffffffffffffffff161415610a415760006001826109119190613860565b90506000600b60008381526020019081526020016000209050806040518060a0016040529081600082015481526020016001820160009054906101000a900473ffffffffffffffffffffffffffffffffffffffff1673ffffffffffffffffffffffffffffffffffffffff1673ffffffffffffffffffffffffffffffffffffffff1681526020016002820160009054906101000a900473ffffffffffffffffffffffffffffffffffffffff1673ffffffffffffffffffffffffffffffffffffffff1673ffffffffffffffffffffffffffffffffffffffff168152602001600382015481526020016004820160009054906101000a900460ff161515151581525050848681518110610a2457610a236138b6565b5b6020026020010181905250600185610a3c9190613860565b945050505b8080610a4c906138e5565b915050610884565b508094505050505090565b6000600954905090565b60606000610a776007611da5565b905060008060005b83811015610b20573373ffffffffffffffffffffffffffffffffffffffff16600b6000600184610aaf9190613860565b815260200190815260200160002060020160009054906101000a900473ffffffffffffffffffffffffffffffffffffffff1673ffffffffffffffffffffffffffffffffffffffff161415610b0d57600183610b0a9190613860565b92505b8080610b18906138e5565b915050610a7f565b5060008267ffffffffffffffff811115610b3d57610b3c6132e1565b5b604051908082528060200260200182016040528015610b7657816020015b610b63612d00565b815260200190600190039081610b5b5790505b50905060005b84811015610d4c573373ffffffffffffffffffffffffffffffffffffffff16600b6000600184610bac9190613860565b815260200190815260200160002060020160009054906101000a900473ffffffffffffffffffffffffffffffffffffffff1673ffffffffffffffffffffffffffffffffffffffff161415610d39576000600182610c099190613860565b90506000600b60008381526020019081526020016000209050806040518060a0016040529081600082015481526020016001820160009054906101000a900473ffffffffffffffffffffffffffffffffffffffff1673ffffffffffffffffffffffffffffffffffffffff1673ffffffffffffffffffffffffffffffffffffffff1681526020016002820160009054906101000a900473ffffffffffffffffffffffffffffffffffffffff1673ffffffffffffffffffffffffffffffffffffffff1673ffffffffffffffffffffffffffffffffffffffff168152602001600382015481526020016004820160009054906101000a900460ff161515151581525050848681518110610d1c57610d1b6138b6565b5b6020026020010181905250600185610d349190613860565b945050505b8080610d44906138e5565b915050610b7c565b508094505050505090565b610d68610d62611ce4565b82611db3565b610da7576040517f08c379a0000000000000000000000000000000000000000000000000000000008152600401610d9e906139a0565b60405180910390fd5b610db2838383611e48565b505050565b3373ffffffffffffffffffffffffffffffffffffffff16600b600083815260200190815260200160002060010160009054906101000a900473ffffffffffffffffffffffffffffffffffffffff1673ffffffffffffffffffffffffffffffffffffffff1614610e5b576040517f08c379a0000000000000000000000000000000000000000000000000000000008152600401610e5290613a32565b60405180910390fd5b60001515600b600083815260200190815260200160002060040160009054906101000a900460ff16151514610ec5576040517f08c379a0000000000000000000000000000000000000000000000000000000008152600401610ebc90613ac4565b60405180910390fd5b33600b600083815260200190815260200160002060020160006101000a81548173ffffffffffffffffffffffffffffffffffffffff021916908373ffffffffffffffffffffffffffffffffffffffff1602179055506000600b600083815260200190815260200160002060010160006101000a81548173ffffffffffffffffffffffffffffffffffffffff021916908373ffffffffffffffffffffffffffffffffffffffff1602179055506001600b600083815260200190815260200160002060040160006101000a81548160ff021916908315150217905550610fa96008612142565b600a60009054906101000a900473ffffffffffffffffffffffffffffffffffffffff1673ffffffffffffffffffffffffffffffffffffffff166108fc6009549081150290604051600060405180830381858888f19350505050158015611013573d6000803e3d6000fd5b5061101f303383611e48565b50565b61103d838383604051806020016040528060008152506115f3565b505050565b606060006110506007611da5565b905060008060005b838110156110f9573373ffffffffffffffffffffffffffffffffffffffff16600b60006001846110889190613860565b815260200190815260200160002060010160009054906101000a900473ffffffffffffffffffffffffffffffffffffffff1673ffffffffffffffffffffffffffffffffffffffff1614156110e6576001836110e39190613860565b92505b80806110f1906138e5565b915050611058565b5060008267ffffffffffffffff811115611116576111156132e1565b5b60405190808252806020026020018201604052801561114f57816020015b61113c612d00565b8152602001906001900390816111345790505b50905060005b84811015611325573373ffffffffffffffffffffffffffffffffffffffff16600b60006001846111859190613860565b815260200190815260200160002060010160009054906101000a900473ffffffffffffffffffffffffffffffffffffffff1673ffffffffffffffffffffffffffffffffffffffff1614156113125760006001826111e29190613860565b90506000600b60008381526020019081526020016000209050806040518060a0016040529081600082015481526020016001820160009054906101000a900473ffffffffffffffffffffffffffffffffffffffff1673ffffffffffffffffffffffffffffffffffffffff1673ffffffffffffffffffffffffffffffffffffffff1681526020016002820160009054906101000a900473ffffffffffffffffffffffffffffffffffffffff1673ffffffffffffffffffffffffffffffffffffffff1673ffffffffffffffffffffffffffffffffffffffff168152602001600382015481526020016004820160009054906101000a900460ff1615151515815250508486815181106112f5576112f46138b6565b5b602002602001018190525060018561130d9190613860565b945050505b808061131d906138e5565b915050611155565b508094505050505090565b60008061133c83612158565b9050600073ffffffffffffffffffffffffffffffffffffffff168173ffffffffffffffffffffffffffffffffffffffff1614156113ae576040517f08c379a00000000000000000000000000000000000000000000000000000000081526004016113a590613b30565b60405180910390fd5b80915050919050565b60008073ffffffffffffffffffffffffffffffffffffffff168273ffffffffffffffffffffffffffffffffffffffff161415611428576040517f08c379a000000000000000000000000000000000000000000000000000000000815260040161141f90613bc2565b60405180910390fd5b600360008373ffffffffffffffffffffffffffffffffffffffff1673ffffffffffffffffffffffffffffffffffffffff168152602001908152602001600020549050919050565b600061147b6007612142565b60006114876007611da5565b90506114933382612195565b61149d81856123b3565b6114a78184612427565b8091505092915050565b6060600180546114c0906136a7565b80601f01602080910402602001604051908101604052809291908181526020018280546114ec906136a7565b80156115395780601f1061150e57610100808354040283529160200191611539565b820191906000526020600020905b81548152906001019060200180831161151c57829003601f168201915b5050505050905090565b61155561154e611ce4565b838361262a565b5050565b3373ffffffffffffffffffffffffffffffffffffffff16600a60009054906101000a900473ffffffffffffffffffffffffffffffffffffffff1673ffffffffffffffffffffffffffffffffffffffff16146115e9576040517f08c379a00000000000000000000000000000000000000000000000000000000081526004016115e090613c54565b60405180910390fd5b8060098190555050565b6116046115fe611ce4565b83611db3565b611643576040517f08c379a000000000000000000000000000000000000000000000000000000000815260040161163a906139a0565b60405180910390fd5b61164f84848484612797565b50505050565b6000600b60008381526020019081526020016000206003015490506000600b600084815260200190815260200160002060010160009054906101000a900473ffffffffffffffffffffffffffffffffffffffff1690508134146116ed576040517f08c379a00000000000000000000000000000000000000000000000000000000081526004016116e490613ce6565b60405180910390fd5b33600b600085815260200190815260200160002060020160006101000a81548173ffffffffffffffffffffffffffffffffffffffff021916908373ffffffffffffffffffffffffffffffffffffffff1602179055506001600b600085815260200190815260200160002060040160006101000a81548160ff0219169083151502179055506000600b600085815260200190815260200160002060010160006101000a81548173ffffffffffffffffffffffffffffffffffffffff021916908373ffffffffffffffffffffffffffffffffffffffff1602179055506117d16008612142565b6117dc303385611e48565b600a60009054906101000a900473ffffffffffffffffffffffffffffffffffffffff1673ffffffffffffffffffffffffffffffffffffffff166108fc6009549081150290604051600060405180830381858888f19350505050158015611846573d6000803e3d6000fd5b508073ffffffffffffffffffffffffffffffffffffffff166108fc349081150290604051600060405180830381858888f1935050505015801561188d573d6000803e3d6000fd5b50505050565b606061189e82611c99565b60006006600084815260200190815260200160002080546118be906136a7565b80601f01602080910402602001604051908101604052809291908181526020018280546118ea906136a7565b80156119375780601f1061190c57610100808354040283529160200191611937565b820191906000526020600020905b81548152906001019060200180831161191a57829003601f168201915b5050505050905060006119486127f3565b905060008151141561195e5781925050506119a1565b60008251111561199357808260405160200161197b929190613d42565b604051602081830303815290604052925050506119a1565b61199c8461280a565b925050505b919050565b3373ffffffffffffffffffffffffffffffffffffffff16600b600084815260200190815260200160002060020160009054906101000a900473ffffffffffffffffffffffffffffffffffffffff1673ffffffffffffffffffffffffffffffffffffffff1614611a4a576040517f08c379a0000000000000000000000000000000000000000000000000000000008152600401611a4190613dd8565b60405180910390fd5b6009543414611a8e576040517f08c379a0000000000000000000000000000000000000000000000000000000008152600401611a8590613e6a565b60405180910390fd5b6000600b600084815260200190815260200160002060040160006101000a81548160ff02191690831515021790555080600b60008481526020019081526020016000206003018190555033600b600084815260200190815260200160002060010160006101000a81548173ffffffffffffffffffffffffffffffffffffffff021916908373ffffffffffffffffffffffffffffffffffffffff16021790555030600b600084815260200190815260200160002060020160006101000a81548173ffffffffffffffffffffffffffffffffffffffff021916908373ffffffffffffffffffffffffffffffffffffffff160217905550611b8c6008612872565b611b97333084611e48565b5050565b6000600560008473ffffffffffffffffffffffffffffffffffffffff1673ffffffffffffffffffffffffffffffffffffffff16815260200190815260200160002060008373ffffffffffffffffffffffffffffffffffffffff1673ffffffffffffffffffffffffffffffffffffffff16815260200190815260200160002060009054906101000a900460ff16905092915050565b60007f01ffc9a7000000000000000000000000000000000000000000000000000000007bffffffffffffffffffffffffffffffffffffffffffffffffffffffff1916827bffffffffffffffffffffffffffffffffffffffffffffffffffffffff1916149050919050565b611ca2816128ce565b611ce1576040517f08c379a0000000000000000000000000000000000000000000000000000000008152600401611cd890613b30565b60405180910390fd5b50565b600033905090565b816004600083815260200190815260200160002060006101000a81548173ffffffffffffffffffffffffffffffffffffffff021916908373ffffffffffffffffffffffffffffffffffffffff160217905550808273ffffffffffffffffffffffffffffffffffffffff16611d5f83611330565b73ffffffffffffffffffffffffffffffffffffffff167f8c5be1e5ebec7d5bd14f71427d1e84f3dd0314c0f7b2291e5b200ac8c7c3b92560405160405180910390a45050565b600081600001549050919050565b600080611dbf83611330565b90508073ffffffffffffffffffffffffffffffffffffffff168473ffffffffffffffffffffffffffffffffffffffff161480611e015750611e008185611b9b565b5b80611e3f57508373ffffffffffffffffffffffffffffffffffffffff16611e2784610698565b73ffffffffffffffffffffffffffffffffffffffff16145b91505092915050565b8273ffffffffffffffffffffffffffffffffffffffff16611e6882611330565b73ffffffffffffffffffffffffffffffffffffffff1614611ebe576040517f08c379a0000000000000000000000000000000000000000000000000000000008152600401611eb590613efc565b60405180910390fd5b600073ffffffffffffffffffffffffffffffffffffffff168273ffffffffffffffffffffffffffffffffffffffff161415611f2e576040517f08c379a0000000000000000000000000000000000000000000000000000000008152600401611f2590613f8e565b60405180910390fd5b611f3b838383600161290f565b8273ffffffffffffffffffffffffffffffffffffffff16611f5b82611330565b73ffffffffffffffffffffffffffffffffffffffff1614611fb1576040517f08c379a0000000000000000000000000000000000000000000000000000000008152600401611fa890613efc565b60405180910390fd5b6004600082815260200190815260200160002060006101000a81549073ffffffffffffffffffffffffffffffffffffffff02191690556001600360008573ffffffffffffffffffffffffffffffffffffffff1673ffffffffffffffffffffffffffffffffffffffff168152602001908152602001600020600082825403925050819055506001600360008473ffffffffffffffffffffffffffffffffffffffff1673ffffffffffffffffffffffffffffffffffffffff16815260200190815260200160002060008282540192505081905550816002600083815260200190815260200160002060006101000a81548173ffffffffffffffffffffffffffffffffffffffff021916908373ffffffffffffffffffffffffffffffffffffffff160217905550808273ffffffffffffffffffffffffffffffffffffffff168473ffffffffffffffffffffffffffffffffffffffff167fddf252ad1be2c89b69c2b068fc378daa952ba7f163c4a11628f55a4df523b3ef60405160405180910390a461213d8383836001612915565b505050565b6001816000016000828254019250508190555050565b60006002600083815260200190815260200160002060009054906101000a900473ffffffffffffffffffffffffffffffffffffffff169050919050565b600073ffffffffffffffffffffffffffffffffffffffff168273ffffffffffffffffffffffffffffffffffffffff161415612205576040517f08c379a00000000000000000000000000000000000000000000000000000000081526004016121fc90613ffa565b60405180910390fd5b61220e816128ce565b1561224e576040517f08c379a000000000000000000000000000000000000000000000000000000000815260040161224590614066565b60405180910390fd5b61225c60008383600161290f565b612265816128ce565b156122a5576040517f08c379a000000000000000000000000000000000000000000000000000000000815260040161229c90614066565b60405180910390fd5b6001600360008473ffffffffffffffffffffffffffffffffffffffff1673ffffffffffffffffffffffffffffffffffffffff16815260200190815260200160002060008282540192505081905550816002600083815260200190815260200160002060006101000a81548173ffffffffffffffffffffffffffffffffffffffff021916908373ffffffffffffffffffffffffffffffffffffffff160217905550808273ffffffffffffffffffffffffffffffffffffffff16600073ffffffffffffffffffffffffffffffffffffffff167fddf252ad1be2c89b69c2b068fc378daa952ba7f163c4a11628f55a4df523b3ef60405160405180910390a46123af600083836001612915565b5050565b6123bc826128ce565b6123fb576040517f08c379a00000000000000000000000000000000000000000000000000000000081526004016123f2906140f8565b60405180910390fd5b80600660008481526020019081526020016000209080519060200190612422929190612d5d565b505050565b6000811161246a576040517f08c379a000000000000000000000000000000000000000000000000000000000815260040161246190614164565b60405180910390fd5b60095434146124ae576040517f08c379a00000000000000000000000000000000000000000000000000000000081526004016124a590613e6a565b60405180910390fd5b6040518060a001604052808381526020013373ffffffffffffffffffffffffffffffffffffffff1681526020013073ffffffffffffffffffffffffffffffffffffffff16815260200182815260200160001515815250600b60008481526020019081526020016000206000820151816000015560208201518160010160006101000a81548173ffffffffffffffffffffffffffffffffffffffff021916908373ffffffffffffffffffffffffffffffffffffffff16021790555060408201518160020160006101000a81548173ffffffffffffffffffffffffffffffffffffffff021916908373ffffffffffffffffffffffffffffffffffffffff1602179055506060820151816003015560808201518160040160006101000a81548160ff0219169083151502179055509050506125e7333084611e48565b817fb640004f1d14576d0c209e240cad0410e0d8c0c33a09375861fbadae2588a98d333084600060405161261e9493929190614184565b60405180910390a25050565b8173ffffffffffffffffffffffffffffffffffffffff168373ffffffffffffffffffffffffffffffffffffffff161415612699576040517f08c379a000000000000000000000000000000000000000000000000000000000815260040161269090614215565b60405180910390fd5b80600560008573ffffffffffffffffffffffffffffffffffffffff1673ffffffffffffffffffffffffffffffffffffffff16815260200190815260200160002060008473ffffffffffffffffffffffffffffffffffffffff1673ffffffffffffffffffffffffffffffffffffffff16815260200190815260200160002060006101000a81548160ff0219169083151502179055508173ffffffffffffffffffffffffffffffffffffffff168373ffffffffffffffffffffffffffffffffffffffff167f17307eab39ab6107e8899845ad3d59bd9653f200f220920489ca2b5937696c318360405161278a9190612eb4565b60405180910390a3505050565b6127a2848484611e48565b6127ae8484848461291b565b6127ed576040517f08c379a00000000000000000000000000000000000000000000000000000000081526004016127e4906142a7565b60405180910390fd5b50505050565b606060405180602001604052806000815250905090565b606061281582611c99565b600061281f6127f3565b9050600081511161283f576040518060200160405280600081525061286a565b8061284984612ab2565b60405160200161285a929190613d42565b6040516020818303038152906040525b915050919050565b600081600001549050600081116128be576040517f08c379a00000000000000000000000000000000000000000000000000000000081526004016128b590614313565b60405180910390fd5b6001810382600001819055505050565b60008073ffffffffffffffffffffffffffffffffffffffff166128f083612158565b73ffffffffffffffffffffffffffffffffffffffff1614159050919050565b50505050565b50505050565b600061293c8473ffffffffffffffffffffffffffffffffffffffff16612b8a565b15612aa5578373ffffffffffffffffffffffffffffffffffffffff1663150b7a02612965611ce4565b8786866040518563ffffffff1660e01b81526004016129879493929190614388565b602060405180830381600087803b1580156129a157600080fd5b505af19250505080156129d257506040513d601f19601f820116820180604052508101906129cf91906143e9565b60015b612a55573d8060008114612a02576040519150601f19603f3d011682016040523d82523d6000602084013e612a07565b606091505b50600081511415612a4d576040517f08c379a0000000000000000000000000000000000000000000000000000000008152600401612a44906142a7565b60405180910390fd5b805181602001fd5b63150b7a0260e01b7bffffffffffffffffffffffffffffffffffffffffffffffffffffffff1916817bffffffffffffffffffffffffffffffffffffffffffffffffffffffff191614915050612aaa565b600190505b949350505050565b606060006001612ac184612bad565b01905060008167ffffffffffffffff811115612ae057612adf6132e1565b5b6040519080825280601f01601f191660200182016040528015612b125781602001600182028036833780820191505090505b509050600082602001820190505b600115612b7f578080600190039150507f3031323334353637383961626364656600000000000000000000000000000000600a86061a8153600a8581612b6957612b68614416565b5b0494506000851415612b7a57612b7f565b612b20565b819350505050919050565b6000808273ffffffffffffffffffffffffffffffffffffffff163b119050919050565b600080600090507a184f03e93ff9f4daa797ed6e38ed64bf6a1f0100000000000000008310612c0b577a184f03e93ff9f4daa797ed6e38ed64bf6a1f0100000000000000008381612c0157612c00614416565b5b0492506040810190505b6d04ee2d6d415b85acef81000000008310612c48576d04ee2d6d415b85acef81000000008381612c3e57612c3d614416565b5b0492506020810190505b662386f26fc100008310612c7757662386f26fc100008381612c6d57612c6c614416565b5b0492506010810190505b6305f5e1008310612ca0576305f5e1008381612c9657612c95614416565b5b0492506008810190505b6127108310612cc5576127108381612cbb57612cba614416565b5b0492506004810190505b60648310612ce85760648381612cde57612cdd614416565b5b0492506002810190505b600a8310612cf7576001810190505b80915050919050565b6040518060a0016040528060008152602001600073ffffffffffffffffffffffffffffffffffffffff168152602001600073ffffffffffffffffffffffffffffffffffffffff168152602001600081526020016000151581525090565b828054612d69906136a7565b90600052602060002090601f016020900481019282612d8b5760008555612dd2565b82601f10612da457805160ff1916838001178555612dd2565b82800160010185558215612dd2579182015b82811115612dd1578251825591602001919060010190612db6565b5b509050612ddf9190612de3565b5090565b5b80821115612dfc576000816000905550600101612de4565b5090565b6000604051905090565b600080fd5b600080fd5b60007fffffffff0000000000000000000000000000000000000000000000000000000082169050919050565b612e4981612e14565b8114612e5457600080fd5b50565b600081359050612e6681612e40565b92915050565b600060208284031215612e8257612e81612e0a565b5b6000612e9084828501612e57565b91505092915050565b60008115159050919050565b612eae81612e99565b82525050565b6000602082019050612ec96000830184612ea5565b92915050565b600081519050919050565b600082825260208201905092915050565b60005b83811015612f09578082015181840152602081019050612eee565b83811115612f18576000848401525b50505050565b6000601f19601f8301169050919050565b6000612f3a82612ecf565b612f448185612eda565b9350612f54818560208601612eeb565b612f5d81612f1e565b840191505092915050565b60006020820190508181036000830152612f828184612f2f565b905092915050565b6000819050919050565b612f9d81612f8a565b8114612fa857600080fd5b50565b600081359050612fba81612f94565b92915050565b600060208284031215612fd657612fd5612e0a565b5b6000612fe484828501612fab565b91505092915050565b600073ffffffffffffffffffffffffffffffffffffffff82169050919050565b600061301882612fed565b9050919050565b6130288161300d565b82525050565b6000602082019050613043600083018461301f565b92915050565b6130528161300d565b811461305d57600080fd5b50565b60008135905061306f81613049565b92915050565b6000806040838503121561308c5761308b612e0a565b5b600061309a85828601613060565b92505060206130ab85828601612fab565b9150509250929050565b600081519050919050565b600082825260208201905092915050565b6000819050602082019050919050565b6130ea81612f8a565b82525050565b60006130fb82612fed565b9050919050565b61310b816130f0565b82525050565b61311a81612e99565b82525050565b60a08201600082015161313660008501826130e1565b5060208201516131496020850182613102565b50604082015161315c6040850182613102565b50606082015161316f60608501826130e1565b5060808201516131826080850182613111565b50505050565b60006131948383613120565b60a08301905092915050565b6000602082019050919050565b60006131b8826130b5565b6131c281856130c0565b93506131cd836130d1565b8060005b838110156131fe5781516131e58882613188565b97506131f0836131a0565b9250506001810190506131d1565b5085935050505092915050565b6000602082019050818103600083015261322581846131ad565b905092915050565b61323681612f8a565b82525050565b6000602082019050613251600083018461322d565b92915050565b6000806000606084860312156132705761326f612e0a565b5b600061327e86828701613060565b935050602061328f86828701613060565b92505060406132a086828701612fab565b9150509250925092565b6000602082840312156132c0576132bf612e0a565b5b60006132ce84828501613060565b91505092915050565b600080fd5b600080fd5b7f4e487b7100000000000000000000000000000000000000000000000000000000600052604160045260246000fd5b61331982612f1e565b810181811067ffffffffffffffff82111715613338576133376132e1565b5b80604052505050565b600061334b612e00565b90506133578282613310565b919050565b600067ffffffffffffffff821115613377576133766132e1565b5b61338082612f1e565b9050602081019050919050565b82818337600083830152505050565b60006133af6133aa8461335c565b613341565b9050828152602081018484840111156133cb576133ca6132dc565b5b6133d684828561338d565b509392505050565b600082601f8301126133f3576133f26132d7565b5b813561340384826020860161339c565b91505092915050565b6000806040838503121561342357613422612e0a565b5b600083013567ffffffffffffffff81111561344157613440612e0f565b5b61344d858286016133de565b925050602061345e85828601612fab565b9150509250929050565b61347181612e99565b811461347c57600080fd5b50565b60008135905061348e81613468565b92915050565b600080604083850312156134ab576134aa612e0a565b5b60006134b985828601613060565b92505060206134ca8582860161347f565b9150509250929050565b600067ffffffffffffffff8211156134ef576134ee6132e1565b5b6134f882612f1e565b9050602081019050919050565b6000613518613513846134d4565b613341565b905082815260208101848484011115613534576135336132dc565b5b61353f84828561338d565b509392505050565b600082601f83011261355c5761355b6132d7565b5b813561356c848260208601613505565b91505092915050565b6000806000806080858703121561358f5761358e612e0a565b5b600061359d87828801613060565b94505060206135ae87828801613060565b93505060406135bf87828801612fab565b925050606085013567ffffffffffffffff8111156135e0576135df612e0f565b5b6135ec87828801613547565b91505092959194509250565b6000806040838503121561360f5761360e612e0a565b5b600061361d85828601612fab565b925050602061362e85828601612fab565b9150509250929050565b6000806040838503121561364f5761364e612e0a565b5b600061365d85828601613060565b925050602061366e85828601613060565b9150509250929050565b7f4e487b7100000000000000000000000000000000000000000000000000000000600052602260045260246000fd5b600060028204905060018216806136bf57607f821691505b602082108114156136d3576136d2613678565b5b50919050565b7f4552433732313a20617070726f76616c20746f2063757272656e74206f776e6560008201527f7200000000000000000000000000000000000000000000000000000000000000602082015250565b6000613735602183612eda565b9150613740826136d9565b604082019050919050565b6000602082019050818103600083015261376481613728565b9050919050565b7f4552433732313a20617070726f76652063616c6c6572206973206e6f7420746f60008201527f6b656e206f776e6572206f7220617070726f76656420666f7220616c6c000000602082015250565b60006137c7603d83612eda565b91506137d28261376b565b604082019050919050565b600060208201905081810360008301526137f6816137ba565b9050919050565b7f4e487b7100000000000000000000000000000000000000000000000000000000600052601160045260246000fd5b600061383782612f8a565b915061384283612f8a565b925082821015613855576138546137fd565b5b828203905092915050565b600061386b82612f8a565b915061387683612f8a565b9250827fffffffffffffffffffffffffffffffffffffffffffffffffffffffffffffffff038211156138ab576138aa6137fd565b5b828201905092915050565b7f4e487b7100000000000000000000000000000000000000000000000000000000600052603260045260246000fd5b60006138f082612f8a565b91507fffffffffffffffffffffffffffffffffffffffffffffffffffffffffffffffff821415613923576139226137fd565b5b600182019050919050565b7f4552433732313a2063616c6c6572206973206e6f7420746f6b656e206f776e6560008201527f72206f7220617070726f76656400000000000000000000000000000000000000602082015250565b600061398a602d83612eda565b91506139958261392e565b604082019050919050565b600060208201905081810360008301526139b98161397d565b9050919050565b7f4f6e6c79206974656d2073656c6c65722063616e20706572666f726d2074686960008201527f73206f7065726174696f6e000000000000000000000000000000000000000000602082015250565b6000613a1c602b83612eda565b9150613a27826139c0565b604082019050919050565b60006020820190508181036000830152613a4b81613a0f565b9050919050565b7f4f6e6c792063616e63656c206974656d7320776869636820617265206e6f742060008201527f736f6c6420796574000000000000000000000000000000000000000000000000602082015250565b6000613aae602883612eda565b9150613ab982613a52565b604082019050919050565b60006020820190508181036000830152613add81613aa1565b9050919050565b7f4552433732313a20696e76616c696420746f6b656e2049440000000000000000600082015250565b6000613b1a601883612eda565b9150613b2582613ae4565b602082019050919050565b60006020820190508181036000830152613b4981613b0d565b9050919050565b7f4552433732313a2061646472657373207a65726f206973206e6f74206120766160008201527f6c6964206f776e65720000000000000000000000000000000000000000000000602082015250565b6000613bac602983612eda565b9150613bb782613b50565b604082019050919050565b60006020820190508181036000830152613bdb81613b9f565b9050919050565b7f4f6e6c79206d61726b6574706c616365206f776e65722063616e20757064617460008201527f65206c697374696e672070726963650000000000000000000000000000000000602082015250565b6000613c3e602f83612eda565b9150613c4982613be2565b604082019050919050565b60006020820190508181036000830152613c6d81613c31565b9050919050565b7f506c65617365207375626d6974207468652061736b696e67207072696365206960008201527f6e206f7264657220746f20636f6d706c65746520746865207075726368617365602082015250565b6000613cd0604083612eda565b9150613cdb82613c74565b604082019050919050565b60006020820190508181036000830152613cff81613cc3565b9050919050565b600081905092915050565b6000613d1c82612ecf565b613d268185613d06565b9350613d36818560208601612eeb565b80840191505092915050565b6000613d4e8285613d11565b9150613d5a8284613d11565b91508190509392505050565b7f4f6e6c79206974656d206f776e65722063616e20706572666f726d207468697360008201527f206f7065726174696f6e00000000000000000000000000000000000000000000602082015250565b6000613dc2602a83612eda565b9150613dcd82613d66565b604082019050919050565b60006020820190508181036000830152613df181613db5565b9050919050565b7f5072696365206d75737420626520657175616c20746f206c697374696e67207060008201527f7269636500000000000000000000000000000000000000000000000000000000602082015250565b6000613e54602483612eda565b9150613e5f82613df8565b604082019050919050565b60006020820190508181036000830152613e8381613e47565b9050919050565b7f4552433732313a207472616e736665722066726f6d20696e636f72726563742060008201527f6f776e6572000000000000000000000000000000000000000000000000000000602082015250565b6000613ee6602583612eda565b9150613ef182613e8a565b604082019050919050565b60006020820190508181036000830152613f1581613ed9565b9050919050565b7f4552433732313a207472616e7366657220746f20746865207a65726f2061646460008201527f7265737300000000000000000000000000000000000000000000000000000000602082015250565b6000613f78602483612eda565b9150613f8382613f1c565b604082019050919050565b60006020820190508181036000830152613fa781613f6b565b9050919050565b7f4552433732313a206d696e7420746f20746865207a65726f2061646472657373600082015250565b6000613fe4602083612eda565b9150613fef82613fae565b602082019050919050565b6000602082019050818103600083015261401381613fd7565b9050919050565b7f4552433732313a20746f6b656e20616c7265616479206d696e74656400000000600082015250565b6000614050601c83612eda565b915061405b8261401a565b602082019050919050565b6000602082019050818103600083015261407f81614043565b9050919050565b7f45524337323155524953746f726167653a2055524920736574206f66206e6f6e60008201527f6578697374656e7420746f6b656e000000000000000000000000000000000000602082015250565b60006140e2602e83612eda565b91506140ed82614086565b604082019050919050565b60006020820190508181036000830152614111816140d5565b9050919050565b7f5072696365206d7573742062652067726561746572207468616e207a65726f00600082015250565b600061414e601f83612eda565b915061415982614118565b602082019050919050565b6000602082019050818103600083015261417d81614141565b9050919050565b6000608082019050614199600083018761301f565b6141a6602083018661301f565b6141b3604083018561322d565b6141c06060830184612ea5565b95945050505050565b7f4552433732313a20617070726f766520746f2063616c6c657200000000000000600082015250565b60006141ff601983612eda565b915061420a826141c9565b602082019050919050565b6000602082019050818103600083015261422e816141f2565b9050919050565b7f4552433732313a207472616e7366657220746f206e6f6e20455243373231526560008201527f63656976657220696d706c656d656e7465720000000000000000000000000000602082015250565b6000614291603283612eda565b915061429c82614235565b604082019050919050565b600060208201905081810360008301526142c081614284565b9050919050565b7f436f756e7465723a2064656372656d656e74206f766572666c6f770000000000600082015250565b60006142fd601b83612eda565b9150614308826142c7565b602082019050919050565b6000602082019050818103600083015261432c816142f0565b9050919050565b600081519050919050565b600082825260208201905092915050565b600061435a82614333565b614364818561433e565b9350614374818560208601612eeb565b61437d81612f1e565b840191505092915050565b600060808201905061439d600083018761301f565b6143aa602083018661301f565b6143b7604083018561322d565b81810360608301526143c9818461434f565b905095945050505050565b6000815190506143e381612e40565b92915050565b6000602082840312156143ff576143fe612e0a565b5b600061440d848285016143d4565b91505092915050565b7f4e487b7100000000000000000000000000000000000000000000000000000000600052601260045260246000fdfea2646970667358221220cc8b641f5d2f1bd8554ded6320850407b927390075c80aab7388e6d097f4a73964736f6c63430008090033",
  "linkReferences": {},
  "deployedLinkReferences": {}
}